:100000000206D330C3FDC2C322C100C10100544166
:040010004849520009
:100023000207A4900001EBF0A3EAF0A3E9F0D2C524
:10003300120003EF25E0F5BC120003E4FF90000477
:10004300E0FEEFC39E501B900001E0FBA3E0FAA388
:10005300E0F98F8275830012007EF5BC1200030F56
:0800630080DBD2C420C4FD22A1
:10007B000207CABB010CE58229F582E5833AF583B9
:10008B00E0225006E92582F8E622BBFE06E925822E
:10009B00F8E222E58229F582E5833AF583E493229F
:1000AB00F8BB010DE58229F582E5833AF583E8F08B
:1000BB00225006E92582C8F622BBFE05E92582C837
:1000CB00F222E88FF0A4CC8BF0A42CFCE98EF0A4E8
:1000DB002CFC8AF0EDA42CFCEA8EF0A4CDA8F08BBE
:1000EB00F0A42DCC3825F0FDE98FF0A42CCD35F004
:1000FB00FCEB8EF0A4FEA9F0EB8FF0A4CFC5F02E95
:10010B00CD39FEE43CFCEAA42DCE35F0FDE43CFCFD
:10011B002275F008758200EF2FFFEE33FECD33CD45
:10012B00CC33CCC58233C5829BED9AEC99E5829892
:10013B00400CF582EE9BFEED9AFDEC99FC0FD5F091
:10014B00D6E4CEFBE4CDFAE4CCF9A88222B800C108
:10015B00B90059BA002DEC8BF084CFCECDFCE5F075
:10016B00CBF97818EF2FFFEE33FEED33FDEC33FCBC
:10017B00EB33FB10D703994004EB99FB0FD8E5E465
:10018B00F9FA227818EF2FFFEE33FEED33FDEC3347
:10019B00FCC933C910D7059BE99A4007EC9BFCE9D6
:1001AB009AF90FD8E0E4C9FAE4CCFB2275F010EF12
:1001BB002FFFEE33FEED33FDCC33CCC833C810D755
:1001CB00079BEC9AE899400AED9BFDEC9AFCE899A9
:1001DB00F80FD5F0DAE4CDFBE4CCFAE4C8F922E869
:1001EB00600FECC313FCED13FDEE13FEEF13FFD802
:1001FB00F122ECF0A3EDF0A3EEF0A3EFF022A88236
:10020B008583F0D083D082120220120220120220AA
:10021B00120220E473E493A3C583C5F0C583C8C55C
:10022B0082C8F0A3C583C5F0C583C8C582C822D0D8
:10023B0083D082F8E4937012740193700DA3A3938F
:10024B00F8740193F5828883E473740293B5F00616
:10025B007403936860E9A3A3A3A380D89000001252
:10026B0001FD900004E014605E14700302037D2412
:10027B0002600302040F7598504389204387804323
:10028B008E10A2AF9203C2AF75C7AA75C755E4F51E
:10029B0091A20392AF53C4DF7B10FAF9F8900000E0
:1002AB00E0FCA3E0FDA3E0FEA3E0FF1201589000E9
:1002BB0005E0F8A3E0F9A3E0FAA3E0FB120158EF85
:1002CB00F404F58DD28E2275985043878053C4F871
:1002DB00A2AF9203C2AF75C7AA75C755E4F591A239
:1002EB000392AF43C4207B10FAF9F8900000E0FCB6
:1002FB00A3E0FDA3E0FEA3E0FF120158900005E090
:10030B00F8A3E0F9A3E0FAA3E0FB120158C3E49FC2
:10031B00FFE49EFE74019DFDE49CFC78081201EA4B
:10032B008FC6E47B10FAF9F8900000E0FCA3E0FD27
:10033B00A3E0FEA3E0FF120158900005E0F8A3E054
:10034B00F9A3E0FAA3E0FB120158C3E49FFFE49E7C
:10035B00FE74019DFDE49CFCEFE48FC5A2AF9203FC
:10036B00C2AF75C7AA75C755F591A20392AF43C427
:10037B00082275F85075C480E47B10FAF9F89000E8
:10038B0000E0FCA3E0FDA3E0FEA3E0FF1201589008
:10039B000005E0F8A3E0F9A3E0FAA3E0FB12015893
:1003AB00C3E49FFFE49EFE74019DFDE49CFC780872
:1003BB001201EA8FC6E47B10FAF9F8900000E0FC1A
:1003CB00A3E0FDA3E0FEA3E0FF120158900005E0BF
:1003DB00F8A3E0F9A3E0FAA3E0FB120158C3E49FF2
:1003EB00FFE49EFE74019DFDE49CFCEFE48FC5A22F
:1003FB00AF9203C2AF75C7AA75C755F591A2039209
:10040B00AF43C40822A2AF9203C2AF75C7AA75C788
:10041B0055439F01A20392AFE4F591EF24F9600CD1
:10042B0014600E2402700D75A638800875A63080F6
:10043B000375A630E4F5A775AF04A2AF9203C2AF64
:10044B0075C7AA75C75543A401A20392AF85AE0821
:10045B0005A6A2AF9203C2AF75C7AA75C75543A431
:10046B0001A20392AF85AE09EF24F860030204FAF0
:10047B00E50825E0FFE50954012FFF54C0F50BEF0C
:10048B00543FF50A74F22FFF75AF0C75A601E4F516
:10049B00A7A2AF9203C2AFA2AF9203C2AF75C7AA16
:1004AB0075C75543AA40A20392AF75C7AA75C75526
:1004BB0043A401A20392AFE5AE644B600BE5AE64BF
:1004CB00526005E5AEB45322E50AC3940F5017E50D
:1004DB000B6440600BE50B64806005E50BB4C00A50
:1004EB0074F22FFF800474FC2FFFEFC313F5087514
:1004FB00C7AA75C75585088475C7AA75C7558509D9
:10050B0085A2AF9203C2AF75C7AA75C755539FFE9D
:10051B00A20392AF227F06120410A2AF9203C2AFC6
:10052B0075C7AA75C755E4F591A20392AF53B1BF36
:10053B0053B2BF90000404F0A31202090001C200E1
:10054B007F007E367D6E7C01120267D299D200123B
:10055B00076D7BFF7A00790E9000047405F07F53D2
:10056B001200267D41E4FF1207F0900004E4F0A393
:10057B0074C8F0A37403F0A374E8F07F007E247DAD
:10058B00F47C001205FE7D42E4FF1207F09000049C
:10059B00E4F0A374C8F0A37403F0A374E8F07F0035
:1005AB007E247DF47C001205FE7D43E4FF1207F0F0
:1005BB00900004E4F0A374C8F0A37403F0A374E8F0
:1005CB00F07F007E247DF47C001205FE7D44E4FF69
:1005DB001207F0900004E4F0A374C8F0A37403F0C6
:1005EB00A374E8F07F007E247DF47C001205FE02EC
:1005FB00056E229000001201FD538EF75389F043D4
:10060B0089017B407A42790F7800900000E0FCA3CF
:10061B00E0FDA3E0FEA3E0FF120158A804A905AA80
:10062B0006AB07900006E0FEA3E0FFE4FCFD120022
:10063B00CDE47B0CFAF9F8120158C374FF9FFF74D9
:10064B00FF9EFEE49DFDE49CFCEFE4900008EFF0C0
:10065B007B407A42790F7800900000E0FCA3E0FD2C
:10066B00A3E0FEA3E0FF120158A804A905AA06AB5C
:10067B0007900006E0FEA3E0FFE4FCFD1200CDE4D2
:10068B007B0CFAF9F8120158C374FF9FFF74FF9E9D
:10069B00FEE49DFDE49CFC78081201EA900004E066
:1006AB007002A3E06021900008E0F58A8F8CD28C59
:1006BB00308DFDC28DC28C900005E024FFF09000C0
:1006CB0004E034FFF080D522787FE4F6D8FD90006B
:1006DB00007FFF7E04E4F0A3DFFCDEFA75812002CD
:1006EB000728020520E493A3F8E493A34003F680C4
:1006FB0001F208DFF48029E493A3F85407240CC813
:10070B00C333C4540F4420C8834004F456800146BD
:10071B00F6DFE4800B0102040810204080900009F2
:10072B00E47E019360BCA3FF543F30E509541FFEE8
:10073B00E493A360010ECF54C025E060A840B8E459
:10074B0093A3FAE493A3F8E493A3C8C582C8CAC5DC
:10075B0083CAF0A3C8C582C8CAC583CADFE9DEE76E
:10076B0080BEA2AF9203C2AF75C7AA75C755E4F599
:10077B0091A20392AF43B30843B408A2AF9203C252
:10078B00AF75C7AA75C755F591A20392AF43B310C6
:10079B0043B41075BE0DD2C622C0E0C083C082C068
:1007AB009130980AD201900009E599F0C2983099DE
:1007BB0005200002C299D091D082D083D0E032C004
:1007CB00E0C083C082C09130F80A90000AE59AF02D
:1007DB00D202C2F830F905200002C2F9D091D082C2
:1007EB00D083D0E032C091E4F591EF14600E047029
:1007FB0014C2998D9920990D80FB8009C2F9AF0520
:08080B008F9A20F9FDD0912223
:00000001FF
